{
  "contractName": "PolarPals",
  "abi": [
    {
      "inputs": [],
      "stateMutability": "nonpayable",
      "type": "constructor"
    },
    {
      "anonymous": false,
      "inputs": [
        {
          "indexed": true,
          "internalType": "address",
          "name": "owner",
          "type": "address"
        },
        {
          "indexed": true,
          "internalType": "address",
          "name": "approved",
          "type": "address"
        },
        {
          "indexed": true,
          "internalType": "uint256",
          "name": "tokenId",
          "type": "uint256"
        }
      ],
      "name": "Approval",
      "type": "event"
    },
    {
      "anonymous": false,
      "inputs": [
        {
          "indexed": true,
          "internalType": "address",
          "name": "owner",
          "type": "address"
        },
        {
          "indexed": true,
          "internalType": "address",
          "name": "operator",
          "type": "address"
        },
        {
          "indexed": false,
          "internalType": "bool",
          "name": "approved",
          "type": "bool"
        }
      ],
      "name": "ApprovalForAll",
      "type": "event"
    },
    {
      "anonymous": false,
      "inputs": [
        {
          "indexed": true,
          "internalType": "address",
          "name": "previousOwner",
          "type": "address"
        },
        {
          "indexed": true,
          "internalType": "address",
          "name": "newOwner",
          "type": "address"
        }
      ],
      "name": "OwnershipTransferred",
      "type": "event"
    },
    {
      "anonymous": false,
      "inputs": [
        {
          "indexed": true,
          "internalType": "address",
          "name": "from",
          "type": "address"
        },
        {
          "indexed": true,
          "internalType": "address",
          "name": "to",
          "type": "address"
        },
        {
          "indexed": true,
          "internalType": "uint256",
          "name": "tokenId",
          "type": "uint256"
        }
      ],
      "name": "Transfer",
      "type": "event"
    },
    {
      "inputs": [],
      "name": "_prefixURI",
      "outputs": [
        {
          "internalType": "string",
          "name": "",
          "type": "string"
        }
      ],
      "stateMutability": "view",
      "type": "function",
      "constant": true
    },
    {
      "inputs": [],
      "name": "_price",
      "outputs": [
        {
          "internalType": "uint256",
          "name": "",
          "type": "uint256"
        }
      ],
      "stateMutability": "view",
      "type": "function",
      "constant": true
    },
    {
      "inputs": [
        {
          "internalType": "address",
          "name": "to",
          "type": "address"
        },
        {
          "internalType": "uint256",
          "name": "tokenId",
          "type": "uint256"
        }
      ],
      "name": "approve",
      "outputs": [],
      "stateMutability": "nonpayable",
      "type": "function"
    },
    {
      "inputs": [
        {
          "internalType": "address",
          "name": "owner",
          "type": "address"
        }
      ],
      "name": "balanceOf",
      "outputs": [
        {
          "internalType": "uint256",
          "name": "",
          "type": "uint256"
        }
      ],
      "stateMutability": "view",
      "type": "function",
      "constant": true
    },
    {
      "inputs": [
        {
          "internalType": "uint256",
          "name": "tokenId",
          "type": "uint256"
        }
      ],
      "name": "getApproved",
      "outputs": [
        {
          "internalType": "address",
          "name": "",
          "type": "address"
        }
      ],
      "stateMutability": "view",
      "type": "function",
      "constant": true
    },
    {
      "inputs": [
        {
          "internalType": "address",
          "name": "owner",
          "type": "address"
        },
        {
          "internalType": "address",
          "name": "operator",
          "type": "address"
        }
      ],
      "name": "isApprovedForAll",
      "outputs": [
        {
          "internalType": "bool",
          "name": "",
          "type": "bool"
        }
      ],
      "stateMutability": "view",
      "type": "function",
      "constant": true
    },
    {
      "inputs": [],
      "name": "name",
      "outputs": [
        {
          "internalType": "string",
          "name": "",
          "type": "string"
        }
      ],
      "stateMutability": "view",
      "type": "function",
      "constant": true
    },
    {
      "inputs": [],
      "name": "owner",
      "outputs": [
        {
          "internalType": "address",
          "name": "",
          "type": "address"
        }
      ],
      "stateMutability": "view",
      "type": "function",
      "constant": true
    },
    {
      "inputs": [
        {
          "internalType": "uint256",
          "name": "tokenId",
          "type": "uint256"
        }
      ],
      "name": "ownerOf",
      "outputs": [
        {
          "internalType": "address",
          "name": "",
          "type": "address"
        }
      ],
      "stateMutability": "view",
      "type": "function",
      "constant": true
    },
    {
      "inputs": [],
      "name": "renounceOwnership",
      "outputs": [],
      "stateMutability": "nonpayable",
      "type": "function"
    },
    {
      "inputs": [
        {
          "internalType": "address",
          "name": "from",
          "type": "address"
        },
        {
          "internalType": "address",
          "name": "to",
          "type": "address"
        },
        {
          "internalType": "uint256",
          "name": "tokenId",
          "type": "uint256"
        }
      ],
      "name": "safeTransferFrom",
      "outputs": [],
      "stateMutability": "nonpayable",
      "type": "function"
    },
    {
      "inputs": [
        {
          "internalType": "address",
          "name": "from",
          "type": "address"
        },
        {
          "internalType": "address",
          "name": "to",
          "type": "address"
        },
        {
          "internalType": "uint256",
          "name": "tokenId",
          "type": "uint256"
        },
        {
          "internalType": "bytes",
          "name": "_data",
          "type": "bytes"
        }
      ],
      "name": "safeTransferFrom",
      "outputs": [],
      "stateMutability": "nonpayable",
      "type": "function"
    },
    {
      "inputs": [
        {
          "internalType": "address",
          "name": "operator",
          "type": "address"
        },
        {
          "internalType": "bool",
          "name": "approved",
          "type": "bool"
        }
      ],
      "name": "setApprovalForAll",
      "outputs": [],
      "stateMutability": "nonpayable",
      "type": "function"
    },
    {
      "inputs": [
        {
          "internalType": "bytes4",
          "name": "interfaceId",
          "type": "bytes4"
        }
      ],
      "name": "supportsInterface",
      "outputs": [
        {
          "internalType": "bool",
          "name": "",
          "type": "bool"
        }
      ],
      "stateMutability": "view",
      "type": "function",
      "constant": true
    },
    {
      "inputs": [],
      "name": "symbol",
      "outputs": [
        {
          "internalType": "string",
          "name": "",
          "type": "string"
        }
      ],
      "stateMutability": "view",
      "type": "function",
      "constant": true
    },
    {
      "inputs": [
        {
          "internalType": "address",
          "name": "from",
          "type": "address"
        },
        {
          "internalType": "address",
          "name": "to",
          "type": "address"
        },
        {
          "internalType": "uint256",
          "name": "tokenId",
          "type": "uint256"
        }
      ],
      "name": "transferFrom",
      "outputs": [],
      "stateMutability": "nonpayable",
      "type": "function"
    },
    {
      "inputs": [
        {
          "internalType": "address",
          "name": "newOwner",
          "type": "address"
        }
      ],
      "name": "transferOwnership",
      "outputs": [],
      "stateMutability": "nonpayable",
      "type": "function"
    },
    {
      "inputs": [
        {
          "internalType": "string",
          "name": "_uri",
          "type": "string"
        }
      ],
      "name": "setBaseURI",
      "outputs": [],
      "stateMutability": "nonpayable",
      "type": "function"
    },
    {
      "inputs": [],
      "name": "totalSupply",
      "outputs": [
        {
          "internalType": "uint256",
          "name": "",
          "type": "uint256"
        }
      ],
      "stateMutability": "view",
      "type": "function",
      "constant": true
    },
    {
      "inputs": [],
      "name": "togglePreSale",
      "outputs": [],
      "stateMutability": "nonpayable",
      "type": "function"
    },
    {
      "inputs": [],
      "name": "toggleSale",
      "outputs": [],
      "stateMutability": "nonpayable",
      "type": "function"
    },
    {
      "inputs": [
        {
          "internalType": "uint256",
          "name": "tokenId",
          "type": "uint256"
        }
      ],
      "name": "tokenURI",
      "outputs": [
        {
          "internalType": "string",
          "name": "",
          "type": "string"
        }
      ],
      "stateMutability": "view",
      "type": "function",
      "constant": true
    },
    {
      "inputs": [
        {
          "internalType": "uint256",
          "name": "amount",
          "type": "uint256"
        }
      ],
      "name": "mintItems",
      "outputs": [],
      "stateMutability": "payable",
      "type": "function",
      "payable": true
    },
    {
      "inputs": [
        {
          "internalType": "uint256",
          "name": "amount",
          "type": "uint256"
        }
      ],
      "name": "presaleMintItems",
      "outputs": [],
      "stateMutability": "payable",
      "type": "function",
      "payable": true
    },
    {
      "inputs": [
        {
          "internalType": "uint256",
          "name": "quantity",
          "type": "uint256"
        }
      ],
      "name": "reserve",
      "outputs": [],
      "stateMutability": "nonpayable",
      "type": "function"
    },
    {
      "inputs": [],
      "name": "withdraw",
      "outputs": [],
      "stateMutability": "payable",
      "type": "function",
      "payable": true
    }
  ],
  "bytecode": "0x60806040526000600860006101000a81548160ff0219169083151502179055506000600860016101000a81548160ff0219169083151502179055503480156200004757600080fd5b506040518060400160405280600a81526020017f506f6c61722050616c73000000000000000000000000000000000000000000008152506040518060400160405280600481526020017f50414c53000000000000000000000000000000000000000000000000000000008152508160009080519060200190620000cc929190620001dc565b508060019080519060200190620000e5929190620001dc565b50505062000108620000fc6200010e60201b60201c565b6200011660201b60201c565b620002f1565b600033905090565b6000600660009054906101000a900473ffffffffffffffffffffffffffffffffffffffff16905081600660006101000a81548173ffffffffffffffffffffffffffffffffffffffff021916908373ffffffffffffffffffffffffffffffffffffffff1602179055508173ffffffffffffffffffffffffffffffffffffffff168173ffffffffffffffffffffffffffffffffffffffff167f8be0079c531659141344cd1fd0a4f28419497f9722a3daafe3b4186f6b6457e060405160405180910390a35050565b828054620001ea906200028c565b90600052602060002090601f0160209004810192826200020e57600085556200025a565b82601f106200022957805160ff19168380011785556200025a565b828001600101855582156200025a579182015b82811115620002595782518255916020019190600101906200023c565b5b5090506200026991906200026d565b5090565b5b80821115620002885760008160009055506001016200026e565b5090565b60006002820490506001821680620002a557607f821691505b60208210811415620002bc57620002bb620002c2565b5b50919050565b7f4e487b7100000000000000000000000000000000000000000000000000000000600052602260045260246000fd5b6133f880620003016000396000f3fe6080604052600436106101815760003560e01c806370a08231116100d157806395d89b411161008a578063c87b56dd11610064578063c87b56dd1461050b578063ca3cb52214610548578063e985e9c51461055f578063f2fde38b1461059c57610181565b806395d89b411461048e578063a22cb465146104b9578063b88d4fde146104e257610181565b806370a08231146103a4578063715018a6146103e15780637d8966e4146103f8578063819b25ba1461040f5780638da5cb5b1461043857806391860f781461046357610181565b8063235b6ea11161013e57806342842e0e1161011857806342842e0e146102f95780635367de6a1461032257806355f804b31461033e5780636352211e1461036757610181565b8063235b6ea11461029b57806323b872dd146102c65780633ccfd60b146102ef57610181565b806301ffc9a71461018657806306fdde03146101c3578063081812fc146101ee578063095ea7b31461022b5780630b4b98781461025457806318160ddd14610270575b600080fd5b34801561019257600080fd5b506101ad60048036038101906101a89190612552565b6105c5565b6040516101ba9190612d16565b60405180910390f35b3480156101cf57600080fd5b506101d86106a7565b6040516101e59190612d31565b60405180910390f35b3480156101fa57600080fd5b50610215600480360381019061021091906125e5565b610739565b6040516102229190612caf565b60405180910390f35b34801561023757600080fd5b50610252600480360381019061024d9190612516565b6107be565b005b61026e600480360381019061026991906125e5565b6108d6565b005b34801561027c57600080fd5b50610285610971565b6040516102929190612f33565b60405180910390f35b3480156102a757600080fd5b506102b0610982565b6040516102bd9190612f33565b60405180910390f35b3480156102d257600080fd5b506102ed60048036038101906102e89190612410565b61098d565b005b6102f76109ed565b005b34801561030557600080fd5b50610320600480360381019061031b9190612410565b610aa9565b005b61033c600480360381019061033791906125e5565b610ac9565b005b34801561034a57600080fd5b50610365600480360381019061036091906125a4565b610b64565b005b34801561037357600080fd5b5061038e600480360381019061038991906125e5565b610bfa565b60405161039b9190612caf565b60405180910390f35b3480156103b057600080fd5b506103cb60048036038101906103c691906123ab565b610cac565b6040516103d89190612f33565b60405180910390f35b3480156103ed57600080fd5b506103f6610d64565b005b34801561040457600080fd5b5061040d610dec565b005b34801561041b57600080fd5b50610436600480360381019061043191906125e5565b610eaf565b005b34801561044457600080fd5b5061044d610f84565b60405161045a9190612caf565b60405180910390f35b34801561046f57600080fd5b50610478610fae565b6040516104859190612d31565b60405180910390f35b34801561049a57600080fd5b506104a361103c565b6040516104b09190612d31565b60405180910390f35b3480156104c557600080fd5b506104e060048036038101906104db91906124da565b6110ce565b005b3480156104ee57600080fd5b506105096004803603810190610504919061245f565b61124f565b005b34801561051757600080fd5b50610532600480360381019061052d91906125e5565b6112b1565b60405161053f9190612d31565b60405180910390f35b34801561055457600080fd5b5061055d611322565b005b34801561056b57600080fd5b50610586600480360381019061058191906123d4565b6113ca565b6040516105939190612d16565b60405180910390f35b3480156105a857600080fd5b506105c360048036038101906105be91906123ab565b61145e565b005b60007f80ac58cd000000000000000000000000000000000000000000000000000000007bffffffffffffffffffffffffffffffffffffffffffffffffffffffff1916827bffffffffffffffffffffffffffffffffffffffffffffffffffffffff1916148061069057507f5b5e139f000000000000000000000000000000000000000000000000000000007bffffffffffffffffffffffffffffffffffffffffffffffffffffffff1916827bffffffffffffffffffffffffffffffffffffffffffffffffffffffff1916145b806106a0575061069f82611556565b5b9050919050565b6060600080546106b6906131ed565b80601f01602080910402602001604051908101604052809291908181526020018280546106e2906131ed565b801561072f5780601f106107045761010080835404028352916020019161072f565b820191906000526020600020905b81548152906001019060200180831161071257829003601f168201915b5050505050905090565b6000610744826115c0565b610783576040517f08c379a000000000000000000000000000000000000000000000000000000000815260040161077a90612e93565b60405180910390fd5b6004600083815260200190815260200160002060009054906101000a900473ffffffffffffffffffffffffffffffffffffffff169050919050565b60006107c982610bfa565b90508073ffffffffffffffffffffffffffffffffffffffff168373ffffffffffffffffffffffffffffffffffffffff16141561083a576040517f08c379a000000000000000000000000000000000000000000000000000000000815260040161083190612ef3565b60405180910390fd5b8073ffffffffffffffffffffffffffffffffffffffff1661085961162c565b73ffffffffffffffffffffffffffffffffffffffff16148061088857506108878161088261162c565b6113ca565b5b6108c7576040517f08c379a00000000000000000000000000000000000000000000000000000000081526004016108be90612e13565b60405180910390fd5b6108d18383611634565b505050565b600a8111156108e457600080fd5b600860009054906101000a900460ff166108fd57600080fd5b600061090960076116ed565b90506103e8828261091a9190613022565b111561092557600080fd5b66f52322698080008261093891906130a9565b34101561094457600080fd5b60005b8281101561096c57610958336116fb565b5080806109649061321f565b915050610947565b505050565b600061097d60076116ed565b905090565b66f523226980800081565b61099e61099861162c565b82611728565b6109dd576040517f08c379a00000000000000000000000000000000000000000000000000000000081526004016109d490612f13565b60405180910390fd5b6109e8838383611806565b505050565b6109f561162c565b73ffffffffffffffffffffffffffffffffffffffff16610a13610f84565b73ffffffffffffffffffffffffffffffffffffffff1614610a69576040517f08c379a0000000000000000000000000000000000000000000000000000000008152600401610a6090612eb3565b60405180910390fd5b3373ffffffffffffffffffffffffffffffffffffffff166108fc479081150290604051600060405180830381858888f19350505050610aa757600080fd5b565b610ac48383836040518060200160405280600081525061124f565b505050565b600a811115610ad757600080fd5b600860019054906101000a900460ff16610af057600080fd5b6000610afc60076116ed565b90506127108282610b0d9190613022565b1115610b1857600080fd5b66f523226980800082610b2b91906130a9565b341015610b3757600080fd5b60005b82811015610b5f57610b4b336116fb565b508080610b579061321f565b915050610b3a565b505050565b610b6c61162c565b73ffffffffffffffffffffffffffffffffffffffff16610b8a610f84565b73ffffffffffffffffffffffffffffffffffffffff1614610be0576040517f08c379a0000000000000000000000000000000000000000000000000000000008152600401610bd790612eb3565b60405180910390fd5b8060099080519060200190610bf69291906121cf565b5050565b6000806002600084815260200190815260200160002060009054906101000a900473ffffffffffffffffffffffffffffffffffffffff169050600073ffffffffffffffffffffffffffffffffffffffff168173ffffffffffffffffffffffffffffffffffffffff161415610ca3576040517f08c379a0000000000000000000000000000000000000000000000000000000008152600401610c9a90612e53565b60405180910390fd5b80915050919050565b60008073ffffffffffffffffffffffffffffffffffffffff168273ffffffffffffffffffffffffffffffffffffffff161415610d1d576040517f08c379a0000000000000000000000000000000000000000000000000000000008152600401610d1490612e33565b60405180910390fd5b600360008373ffffffffffffffffffffffffffffffffffffffff1673ffffffffffffffffffffffffffffffffffffffff168152602001908152602001600020549050919050565b610d6c61162c565b73ffffffffffffffffffffffffffffffffffffffff16610d8a610f84565b73ffffffffffffffffffffffffffffffffffffffff1614610de0576040517f08c379a0000000000000000000000000000000000000000000000000000000008152600401610dd790612eb3565b60405180910390fd5b610dea6000611a62565b565b610df461162c565b73ffffffffffffffffffffffffffffffffffffffff16610e12610f84565b73ffffffffffffffffffffffffffffffffffffffff1614610e68576040517f08c379a0000000000000000000000000000000000000000000000000000000008152600401610e5f90612eb3565b60405180910390fd5b600860019054906101000a900460ff1615600860016101000a81548160ff0219169083151502179055506000600860006101000a81548160ff021916908315150217905550565b610eb761162c565b73ffffffffffffffffffffffffffffffffffffffff16610ed5610f84565b73ffffffffffffffffffffffffffffffffffffffff1614610f2b576040517f08c379a0000000000000000000000000000000000000000000000000000000008152600401610f2290612eb3565b60405180910390fd5b6000610f3760076116ed565b90505b81811015610f8057612710811015610f6d57610f566007611b28565b610f6c33600183610f679190613022565b611b3e565b5b8080610f789061321f565b915050610f3a565b5050565b6000600660009054906101000a900473ffffffffffffffffffffffffffffffffffffffff16905090565b60098054610fbb906131ed565b80601f0160208091040260200160405190810160405280929190818152602001828054610fe7906131ed565b80156110345780601f1061100957610100808354040283529160200191611034565b820191906000526020600020905b81548152906001019060200180831161101757829003601f168201915b505050505081565b60606001805461104b906131ed565b80601f0160208091040260200160405190810160405280929190818152602001828054611077906131ed565b80156110c45780601f10611099576101008083540402835291602001916110c4565b820191906000526020600020905b8154815290600101906020018083116110a757829003601f168201915b5050505050905090565b6110d661162c565b73ffffffffffffffffffffffffffffffffffffffff168273ffffffffffffffffffffffffffffffffffffffff161415611144576040517f08c379a000000000000000000000000000000000000000000000000000000000815260040161113b90612dd3565b60405180910390fd5b806005600061115161162c565b73ffffffffffffffffffffffffffffffffffffffff1673ffffffffffffffffffffffffffffffffffffffff16815260200190815260200160002060008473ffffffffffffffffffffffffffffffffffffffff1673ffffffffffffffffffffffffffffffffffffffff16815260200190815260200160002060006101000a81548160ff0219169083151502179055508173ffffffffffffffffffffffffffffffffffffffff166111fe61162c565b73ffffffffffffffffffffffffffffffffffffffff167f17307eab39ab6107e8899845ad3d59bd9653f200f220920489ca2b5937696c31836040516112439190612d16565b60405180910390a35050565b61126061125a61162c565b83611728565b61129f576040517f08c379a000000000000000000000000000000000000000000000000000000000815260040161129690612f13565b60405180910390fd5b6112ab84848484611b5c565b50505050565b60606112bc826115c0565b6112c557600080fd5b60006112cf611bb8565b905060008151116112ef576040518060200160405280600081525061131a565b806112f984611c4a565b60405160200161130a929190612c80565b6040516020818303038152906040525b915050919050565b61132a61162c565b73ffffffffffffffffffffffffffffffffffffffff16611348610f84565b73ffffffffffffffffffffffffffffffffffffffff161461139e576040517f08c379a000000000000000000000000000000000000000000000000000000000815260040161139590612eb3565b60405180910390fd5b600860009054906101000a900460ff1615600860006101000a81548160ff021916908315150217905550565b6000600560008473ffffffffffffffffffffffffffffffffffffffff1673ffffffffffffffffffffffffffffffffffffffff16815260200190815260200160002060008373ffffffffffffffffffffffffffffffffffffffff1673ffffffffffffffffffffffffffffffffffffffff16815260200190815260200160002060009054906101000a900460ff16905092915050565b61146661162c565b73ffffffffffffffffffffffffffffffffffffffff16611484610f84565b73ffffffffffffffffffffffffffffffffffffffff16146114da576040517f08c379a00000000000000000000000000000000000000000000000000000000081526004016114d190612eb3565b60405180910390fd5b600073ffffffffffffffffffffffffffffffffffffffff168173ffffffffffffffffffffffffffffffffffffffff16141561154a576040517f08c379a000000000000000000000000000000000000000000000000000000000815260040161154190612d73565b60405180910390fd5b61155381611a62565b50565b60007f01ffc9a7000000000000000000000000000000000000000000000000000000007bffffffffffffffffffffffffffffffffffffffffffffffffffffffff1916827bffffffffffffffffffffffffffffffffffffffffffffffffffffffff1916149050919050565b60008073ffffffffffffffffffffffffffffffffffffffff166002600084815260200190815260200160002060009054906101000a900473ffffffffffffffffffffffffffffffffffffffff1673ffffffffffffffffffffffffffffffffffffffff1614159050919050565b600033905090565b816004600083815260200190815260200160002060006101000a81548173ffffffffffffffffffffffffffffffffffffffff021916908373ffffffffffffffffffffffffffffffffffffffff160217905550808273ffffffffffffffffffffffffffffffffffffffff166116a783610bfa565b73ffffffffffffffffffffffffffffffffffffffff167f8c5be1e5ebec7d5bd14f71427d1e84f3dd0314c0f7b2291e5b200ac8c7c3b92560405160405180910390a45050565b600081600001549050919050565b60006117076007611b28565b600061171360076116ed565b905061171f8382611df7565b80915050919050565b6000611733826115c0565b611772576040517f08c379a000000000000000000000000000000000000000000000000000000000815260040161176990612df3565b60405180910390fd5b600061177d83610bfa565b90508073ffffffffffffffffffffffffffffffffffffffff168473ffffffffffffffffffffffffffffffffffffffff1614806117ec57508373ffffffffffffffffffffffffffffffffffffffff166117d484610739565b73ffffffffffffffffffffffffffffffffffffffff16145b806117fd57506117fc81856113ca565b5b91505092915050565b8273ffffffffffffffffffffffffffffffffffffffff1661182682610bfa565b73ffffffffffffffffffffffffffffffffffffffff161461187c576040517f08c379a000000000000000000000000000000000000000000000000000000000815260040161187390612ed3565b60405180910390fd5b600073ffffffffffffffffffffffffffffffffffffffff168273ffffffffffffffffffffffffffffffffffffffff1614156118ec576040517f08c379a00000000000000000000000000000000000000000000000000000000081526004016118e390612db3565b60405180910390fd5b6118f7838383611fc5565b611902600082611634565b6001600360008573ffffffffffffffffffffffffffffffffffffffff1673ffffffffffffffffffffffffffffffffffffffff16815260200190815260200160002060008282546119529190613103565b925050819055506001600360008473ffffffffffffffffffffffffffffffffffffffff1673ffffffffffffffffffffffffffffffffffffffff16815260200190815260200160002060008282546119a99190613022565b92505081905550816002600083815260200190815260200160002060006101000a81548173ffffffffffffffffffffffffffffffffffffffff021916908373ffffffffffffffffffffffffffffffffffffffff160217905550808273ffffffffffffffffffffffffffffffffffffffff168473ffffffffffffffffffffffffffffffffffffffff167fddf252ad1be2c89b69c2b068fc378daa952ba7f163c4a11628f55a4df523b3ef60405160405180910390a4505050565b6000600660009054906101000a900473ffffffffffffffffffffffffffffffffffffffff16905081600660006101000a81548173ffffffffffffffffffffffffffffffffffffffff021916908373ffffffffffffffffffffffffffffffffffffffff1602179055508173ffffffffffffffffffffffffffffffffffffffff168173ffffffffffffffffffffffffffffffffffffffff167f8be0079c531659141344cd1fd0a4f28419497f9722a3daafe3b4186f6b6457e060405160405180910390a35050565b6001816000016000828254019250508190555050565b611b58828260405180602001604052806000815250611fca565b5050565b611b67848484611806565b611b7384848484612025565b611bb2576040517f08c379a0000000000000000000000000000000000000000000000000000000008152600401611ba990612d53565b60405180910390fd5b50505050565b606060098054611bc7906131ed565b80601f0160208091040260200160405190810160405280929190818152602001828054611bf3906131ed565b8015611c405780601f10611c1557610100808354040283529160200191611c40565b820191906000526020600020905b815481529060010190602001808311611c2357829003601f168201915b5050505050905090565b60606000821415611c92576040518060400160405280600181526020017f30000000000000000000000000000000000000000000000000000000000000008152509050611df2565b600082905060005b60008214611cc4578080611cad9061321f565b915050600a82611cbd9190613078565b9150611c9a565b60008167ffffffffffffffff811115611d06577f4e487b7100000000000000000000000000000000000000000000000000000000600052604160045260246000fd5b6040519080825280601f01601f191660200182016040528015611d385781602001600182028036833780820191505090505b5090505b60008514611deb57600182611d519190613103565b9150600a85611d609190613268565b6030611d6c9190613022565b60f81b818381518110611da8577f4e487b7100000000000000000000000000000000000000000000000000000000600052603260045260246000fd5b60200101907effffffffffffffffffffffffffffffffffffffffffffffffffffffffffffff1916908160001a905350600a85611de49190613078565b9450611d3c565b8093505050505b919050565b600073ffffffffffffffffffffffffffffffffffffffff168273ffffffffffffffffffffffffffffffffffffffff161415611e67576040517f08c379a0000000000000000000000000000000000000000000000000000000008152600401611e5e90612e73565b60405180910390fd5b611e70816115c0565b15611eb0576040517f08c379a0000000000000000000000000000000000000000000000000000000008152600401611ea790612d93565b60405180910390fd5b611ebc60008383611fc5565b6001600360008473ffffffffffffffffffffffffffffffffffffffff1673ffffffffffffffffffffffffffffffffffffffff1681526020019081526020016000206000828254611f0c9190613022565b92505081905550816002600083815260200190815260200160002060006101000a81548173ffffffffffffffffffffffffffffffffffffffff021916908373ffffffffffffffffffffffffffffffffffffffff160217905550808273ffffffffffffffffffffffffffffffffffffffff16600073ffffffffffffffffffffffffffffffffffffffff167fddf252ad1be2c89b69c2b068fc378daa952ba7f163c4a11628f55a4df523b3ef60405160405180910390a45050565b505050565b611fd48383611df7565b611fe16000848484612025565b612020576040517f08c379a000000000000000000000000000000000000000000000000000000000815260040161201790612d53565b60405180910390fd5b505050565b60006120468473ffffffffffffffffffffffffffffffffffffffff166121bc565b156121af578373ffffffffffffffffffffffffffffffffffffffff1663150b7a0261206f61162c565b8786866040518563ffffffff1660e01b81526004016120919493929190612cca565b602060405180830381600087803b1580156120ab57600080fd5b505af19250505080156120dc57506040513d601f19601f820116820180604052508101906120d9919061257b565b60015b61215f573d806000811461210c576040519150601f19603f3d011682016040523d82523d6000602084013e612111565b606091505b50600081511415612157576040517f08c379a000000000000000000000000000000000000000000000000000000000815260040161214e90612d53565b60405180910390fd5b805181602001fd5b63150b7a0260e01b7bffffffffffffffffffffffffffffffffffffffffffffffffffffffff1916817bffffffffffffffffffffffffffffffffffffffffffffffffffffffff1916149150506121b4565b600190505b949350505050565b600080823b905060008111915050919050565b8280546121db906131ed565b90600052602060002090601f0160209004810192826121fd5760008555612244565b82601f1061221657805160ff1916838001178555612244565b82800160010185558215612244579182015b82811115612243578251825591602001919060010190612228565b5b5090506122519190612255565b5090565b5b8082111561226e576000816000905550600101612256565b5090565b600061228561228084612f7f565b612f4e565b90508281526020810184848401111561229d57600080fd5b6122a88482856131ab565b509392505050565b60006122c36122be84612faf565b612f4e565b9050828152602081018484840111156122db57600080fd5b6122e68482856131ab565b509392505050565b6000813590506122fd81613366565b92915050565b6000813590506123128161337d565b92915050565b60008135905061232781613394565b92915050565b60008151905061233c81613394565b92915050565b600082601f83011261235357600080fd5b8135612363848260208601612272565b91505092915050565b600082601f83011261237d57600080fd5b813561238d8482602086016122b0565b91505092915050565b6000813590506123a5816133ab565b92915050565b6000602082840312156123bd57600080fd5b60006123cb848285016122ee565b91505092915050565b600080604083850312156123e757600080fd5b60006123f5858286016122ee565b9250506020612406858286016122ee565b9150509250929050565b60008060006060848603121561242557600080fd5b6000612433868287016122ee565b9350506020612444868287016122ee565b925050604061245586828701612396565b9150509250925092565b6000806000806080858703121561247557600080fd5b6000612483878288016122ee565b9450506020612494878288016122ee565b93505060406124a587828801612396565b925050606085013567ffffffffffffffff8111156124c257600080fd5b6124ce87828801612342565b91505092959194509250565b600080604083850312156124ed57600080fd5b60006124fb858286016122ee565b925050602061250c85828601612303565b9150509250929050565b6000806040838503121561252957600080fd5b6000612537858286016122ee565b925050602061254885828601612396565b9150509250929050565b60006020828403121561256457600080fd5b600061257284828501612318565b91505092915050565b60006020828403121561258d57600080fd5b600061259b8482850161232d565b91505092915050565b6000602082840312156125b657600080fd5b600082013567ffffffffffffffff8111156125d057600080fd5b6125dc8482850161236c565b91505092915050565b6000602082840312156125f757600080fd5b600061260584828501612396565b91505092915050565b61261781613137565b82525050565b61262681613149565b82525050565b600061263782612fdf565b6126418185612ff5565b93506126518185602086016131ba565b61265a81613355565b840191505092915050565b600061267082612fea565b61267a8185613006565b935061268a8185602086016131ba565b61269381613355565b840191505092915050565b60006126a982612fea565b6126b38185613017565b93506126c38185602086016131ba565b80840191505092915050565b60006126dc603283613006565b91507f4552433732313a207472616e7366657220746f206e6f6e20455243373231526560008301527f63656976657220696d706c656d656e74657200000000000000000000000000006020830152604082019050919050565b6000612742602683613006565b91507f4f776e61626c653a206e6577206f776e657220697320746865207a65726f206160008301527f64647265737300000000000000000000000000000000000000000000000000006020830152604082019050919050565b60006127a8601c83613006565b91507f4552433732313a20746f6b656e20616c7265616479206d696e746564000000006000830152602082019050919050565b60006127e8602483613006565b91507f4552433732313a207472616e7366657220746f20746865207a65726f2061646460008301527f72657373000000000000000000000000000000000000000000000000000000006020830152604082019050919050565b600061284e601983613006565b91507f4552433732313a20617070726f766520746f2063616c6c6572000000000000006000830152602082019050919050565b600061288e602c83613006565b91507f4552433732313a206f70657261746f7220717565727920666f72206e6f6e657860008301527f697374656e7420746f6b656e00000000000000000000000000000000000000006020830152604082019050919050565b60006128f4603883613006565b91507f4552433732313a20617070726f76652063616c6c6572206973206e6f74206f7760008301527f6e6572206e6f7220617070726f76656420666f7220616c6c00000000000000006020830152604082019050919050565b600061295a602a83613006565b91507f4552433732313a2062616c616e636520717565727920666f7220746865207a6560008301527f726f2061646472657373000000000000000000000000000000000000000000006020830152604082019050919050565b60006129c0602983613006565b91507f4552433732313a206f776e657220717565727920666f72206e6f6e657869737460008301527f656e7420746f6b656e00000000000000000000000000000000000000000000006020830152604082019050919050565b6000612a26602083613006565b91507f4552433732313a206d696e7420746f20746865207a65726f20616464726573736000830152602082019050919050565b6000612a66602c83613006565b91507f4552433732313a20617070726f76656420717565727920666f72206e6f6e657860008301527f697374656e7420746f6b656e00000000000000000000000000000000000000006020830152604082019050919050565b6000612acc600583613017565b91507f2e6a736f6e0000000000000000000000000000000000000000000000000000006000830152600582019050919050565b6000612b0c602083613006565b91507f4f776e61626c653a2063616c6c6572206973206e6f7420746865206f776e65726000830152602082019050919050565b6000612b4c602983613006565b91507f4552433732313a207472616e73666572206f6620746f6b656e2074686174206960008301527f73206e6f74206f776e00000000000000000000000000000000000000000000006020830152604082019050919050565b6000612bb2602183613006565b91507f4552433732313a20617070726f76616c20746f2063757272656e74206f776e6560008301527f72000000000000000000000000000000000000000000000000000000000000006020830152604082019050919050565b6000612c18603183613006565b91507f4552433732313a207472616e736665722063616c6c6572206973206e6f74206f60008301527f776e6572206e6f7220617070726f7665640000000000000000000000000000006020830152604082019050919050565b612c7a816131a1565b82525050565b6000612c8c828561269e565b9150612c98828461269e565b9150612ca382612abf565b91508190509392505050565b6000602082019050612cc4600083018461260e565b92915050565b6000608082019050612cdf600083018761260e565b612cec602083018661260e565b612cf96040830185612c71565b8181036060830152612d0b818461262c565b905095945050505050565b6000602082019050612d2b600083018461261d565b92915050565b60006020820190508181036000830152612d4b8184612665565b905092915050565b60006020820190508181036000830152612d6c816126cf565b9050919050565b60006020820190508181036000830152612d8c81612735565b9050919050565b60006020820190508181036000830152612dac8161279b565b9050919050565b60006020820190508181036000830152612dcc816127db565b9050919050565b60006020820190508181036000830152612dec81612841565b9050919050565b60006020820190508181036000830152612e0c81612881565b9050919050565b60006020820190508181036000830152612e2c816128e7565b9050919050565b60006020820190508181036000830152612e4c8161294d565b9050919050565b60006020820190508181036000830152612e6c816129b3565b9050919050565b60006020820190508181036000830152612e8c81612a19565b9050919050565b60006020820190508181036000830152612eac81612a59565b9050919050565b60006020820190508181036000830152612ecc81612aff565b9050919050565b60006020820190508181036000830152612eec81612b3f565b9050919050565b60006020820190508181036000830152612f0c81612ba5565b9050919050565b60006020820190508181036000830152612f2c81612c0b565b9050919050565b6000602082019050612f486000830184612c71565b92915050565b6000604051905081810181811067ffffffffffffffff82111715612f7557612f74613326565b5b8060405250919050565b600067ffffffffffffffff821115612f9a57612f99613326565b5b601f19601f8301169050602081019050919050565b600067ffffffffffffffff821115612fca57612fc9613326565b5b601f19601f8301169050602081019050919050565b600081519050919050565b600081519050919050565b600082825260208201905092915050565b600082825260208201905092915050565b600081905092915050565b600061302d826131a1565b9150613038836131a1565b9250827fffffffffffffffffffffffffffffffffffffffffffffffffffffffffffffffff0382111561306d5761306c613299565b5b828201905092915050565b6000613083826131a1565b915061308e836131a1565b92508261309e5761309d6132c8565b5b828204905092915050565b60006130b4826131a1565b91506130bf836131a1565b9250817fffffffffffffffffffffffffffffffffffffffffffffffffffffffffffffffff04831182151516156130f8576130f7613299565b5b828202905092915050565b600061310e826131a1565b9150613119836131a1565b92508282101561312c5761312b613299565b5b828203905092915050565b600061314282613181565b9050919050565b60008115159050919050565b60007fffffffff0000000000000000000000000000000000000000000000000000000082169050919050565b600073ffffffffffffffffffffffffffffffffffffffff82169050919050565b6000819050919050565b82818337600083830152505050565b60005b838110156131d85780820151818401526020810190506131bd565b838111156131e7576000848401525b50505050565b6000600282049050600182168061320557607f821691505b60208210811415613219576132186132f7565b5b50919050565b600061322a826131a1565b91507fffffffffffffffffffffffffffffffffffffffffffffffffffffffffffffffff82141561325d5761325c613299565b5b600182019050919050565b6000613273826131a1565b915061327e836131a1565b92508261328e5761328d6132c8565b5b828206905092915050565b7f4e487b7100000000000000000000000000000000000000000000000000000000600052601160045260246000fd5b7f4e487b7100000000000000000000000000000000000000000000000000000000600052601260045260246000fd5b7f4e487b7100000000000000000000000000000000000000000000000000000000600052602260045260246000fd5b7f4e487b7100000000000000000000000000000000000000000000000000000000600052604160045260246000fd5b6000601f19601f8301169050919050565b61336f81613137565b811461337a57600080fd5b50565b61338681613149565b811461339157600080fd5b50565b61339d81613155565b81146133a857600080fd5b50565b6133b4816131a1565b81146133bf57600080fd5b5056fea26469706673582212203d46566ad7090a22011a9f350e431f67eabb62aac4e1e78cad45af99eedd9a0164736f6c63430008000033",
  "immutableReferences": {},
  "source": "pragma solidity ^0.8.0;\n//SPDX-License-Identifier: MIT\n\nimport \"@openzeppelin/contracts/token/ERC721/ERC721.sol\";\nimport \"@openzeppelin/contracts/utils/Counters.sol\";\nimport \"@openzeppelin/contracts/access/Ownable.sol\";\nimport \"@openzeppelin/contracts/utils/Strings.sol\";\n\ncontract PolarPals is ERC721, Ownable {\n    using Counters for Counters.Counter;\n    Counters.Counter private _tokenIds;\n\n    uint256 private constant _maxTokens = 10000;\n    uint256 private constant _maxPresaleTokens = 1000;\n    uint256 private constant _maxMint = 10;\n    uint256 public constant _price = 69000000000000000; // 0.069 ETH\n    bool private _presaleActive = false;\n    bool private _saleActive = false;\n\n    string public _prefixURI;\n\n    constructor() ERC721(\"Polar Pals\", \"PALS\") {}\n\n    function _baseURI() internal view override returns (string memory) {\n        return _prefixURI;\n    }\n\n    function setBaseURI(string memory _uri) public onlyOwner {\n        _prefixURI = _uri;\n    }\n\n    function totalSupply() public view returns (uint256) {\n        return _tokenIds.current();\n    }\n\n    function togglePreSale() public onlyOwner {\n        _presaleActive = !_presaleActive;\n    }\n\n    function toggleSale() public onlyOwner {\n        _saleActive = !_saleActive;\n        _presaleActive = false;\n    }\n\n    function tokenURI(uint256 tokenId)\n        public\n        view\n        virtual\n        override\n        returns (string memory)\n    {\n        require(_exists(tokenId));\n\n        string memory baseURI = _baseURI();\n        return\n            bytes(baseURI).length > 0\n                ? string(\n                    abi.encodePacked(\n                        baseURI,\n                        Strings.toString(tokenId),\n                        \".json\"\n                    )\n                )\n                : \"\";\n    }\n\n    function mintItems(uint256 amount) public payable {\n        require(amount <= _maxMint);\n        require(_saleActive);\n\n        uint256 totalMinted = _tokenIds.current();\n        require(totalMinted + amount <= _maxTokens);\n\n        require(msg.value >= amount * _price);\n\n        for (uint256 i = 0; i < amount; i++) {\n            _mintItem(msg.sender);\n        }\n    }\n\n    function presaleMintItems(uint256 amount) public payable {\n        require(amount <= _maxMint);\n        require(_presaleActive);\n\n        uint256 totalMinted = _tokenIds.current();\n        require(totalMinted + amount <= _maxPresaleTokens);\n\n        require(msg.value >= amount * _price);\n\n        for (uint256 i = 0; i < amount; i++) {\n            _mintItem(msg.sender);\n        }\n    }\n\n    function _mintItem(address to) internal returns (uint256) {\n        _tokenIds.increment();\n\n        uint256 id = _tokenIds.current();\n        _mint(to, id);\n\n        return id;\n    }\n\n    function reserve(uint256 quantity) public onlyOwner {\n        for(uint i = _tokenIds.current(); i < quantity; i++) {\n            if (i < _maxTokens) {\n                _tokenIds.increment();\n                _safeMint(msg.sender, i + 1);\n            }\n        }\n    }\n\n    function withdraw() public payable onlyOwner {\n        require(payable(msg.sender).send(address(this).balance));\n    }\n}\n",
  "sourcePath": "/Users/teancum/the_polar_pals/contracts/PolarPals.sol",
  "compiler": {
    "name": "solc",
    "version": "0.8.0+commit.c7dfd78e.Emscripten.clang"
  },
  "schemaVersion": "3.4.1",
  "updatedAt": "2021-09-01T05:59:21.224Z",
  "networkType": "ethereum",
  "devdoc": {
    "kind": "dev",
    "methods": {
      "approve(address,uint256)": {
        "details": "See {IERC721-approve}."
      },
      "balanceOf(address)": {
        "details": "See {IERC721-balanceOf}."
      },
      "getApproved(uint256)": {
        "details": "See {IERC721-getApproved}."
      },
      "isApprovedForAll(address,address)": {
        "details": "See {IERC721-isApprovedForAll}."
      },
      "name()": {
        "details": "See {IERC721Metadata-name}."
      },
      "owner()": {
        "details": "Returns the address of the current owner."
      },
      "ownerOf(uint256)": {
        "details": "See {IERC721-ownerOf}."
      },
      "renounceOwnership()": {
        "details": "Leaves the contract without owner. It will not be possible to call `onlyOwner` functions anymore. Can only be called by the current owner. NOTE: Renouncing ownership will leave the contract without an owner, thereby removing any functionality that is only available to the owner."
      },
      "safeTransferFrom(address,address,uint256)": {
        "details": "See {IERC721-safeTransferFrom}."
      },
      "safeTransferFrom(address,address,uint256,bytes)": {
        "details": "See {IERC721-safeTransferFrom}."
      },
      "setApprovalForAll(address,bool)": {
        "details": "See {IERC721-setApprovalForAll}."
      },
      "supportsInterface(bytes4)": {
        "details": "See {IERC165-supportsInterface}."
      },
      "symbol()": {
        "details": "See {IERC721Metadata-symbol}."
      },
      "tokenURI(uint256)": {
        "details": "See {IERC721Metadata-tokenURI}."
      },
      "transferFrom(address,address,uint256)": {
        "details": "See {IERC721-transferFrom}."
      },
      "transferOwnership(address)": {
        "details": "Transfers ownership of the contract to a new account (`newOwner`). Can only be called by the current owner."
      }
    },
    "version": 1
  },
  "userdoc": {
    "kind": "user",
    "methods": {},
    "version": 1
  }
}