{
  "contractName": "PolarPals",
  "abi": [
    {
      "inputs": [],
      "stateMutability": "nonpayable",
      "type": "constructor"
    },
    {
      "anonymous": false,
      "inputs": [
        {
          "indexed": true,
          "internalType": "address",
          "name": "owner",
          "type": "address"
        },
        {
          "indexed": true,
          "internalType": "address",
          "name": "approved",
          "type": "address"
        },
        {
          "indexed": true,
          "internalType": "uint256",
          "name": "tokenId",
          "type": "uint256"
        }
      ],
      "name": "Approval",
      "type": "event"
    },
    {
      "anonymous": false,
      "inputs": [
        {
          "indexed": true,
          "internalType": "address",
          "name": "owner",
          "type": "address"
        },
        {
          "indexed": true,
          "internalType": "address",
          "name": "operator",
          "type": "address"
        },
        {
          "indexed": false,
          "internalType": "bool",
          "name": "approved",
          "type": "bool"
        }
      ],
      "name": "ApprovalForAll",
      "type": "event"
    },
    {
      "anonymous": false,
      "inputs": [
        {
          "indexed": true,
          "internalType": "address",
          "name": "previousOwner",
          "type": "address"
        },
        {
          "indexed": true,
          "internalType": "address",
          "name": "newOwner",
          "type": "address"
        }
      ],
      "name": "OwnershipTransferred",
      "type": "event"
    },
    {
      "anonymous": false,
      "inputs": [
        {
          "indexed": true,
          "internalType": "address",
          "name": "from",
          "type": "address"
        },
        {
          "indexed": true,
          "internalType": "address",
          "name": "to",
          "type": "address"
        },
        {
          "indexed": true,
          "internalType": "uint256",
          "name": "tokenId",
          "type": "uint256"
        }
      ],
      "name": "Transfer",
      "type": "event"
    },
    {
      "inputs": [],
      "name": "_prefixURI",
      "outputs": [
        {
          "internalType": "string",
          "name": "",
          "type": "string"
        }
      ],
      "stateMutability": "view",
      "type": "function"
    },
    {
      "inputs": [],
      "name": "_price",
      "outputs": [
        {
          "internalType": "uint256",
          "name": "",
          "type": "uint256"
        }
      ],
      "stateMutability": "view",
      "type": "function"
    },
    {
      "inputs": [
        {
          "internalType": "address",
          "name": "to",
          "type": "address"
        },
        {
          "internalType": "uint256",
          "name": "tokenId",
          "type": "uint256"
        }
      ],
      "name": "approve",
      "outputs": [],
      "stateMutability": "nonpayable",
      "type": "function"
    },
    {
      "inputs": [
        {
          "internalType": "address",
          "name": "owner",
          "type": "address"
        }
      ],
      "name": "balanceOf",
      "outputs": [
        {
          "internalType": "uint256",
          "name": "",
          "type": "uint256"
        }
      ],
      "stateMutability": "view",
      "type": "function"
    },
    {
      "inputs": [
        {
          "internalType": "uint256",
          "name": "tokenId",
          "type": "uint256"
        }
      ],
      "name": "getApproved",
      "outputs": [
        {
          "internalType": "address",
          "name": "",
          "type": "address"
        }
      ],
      "stateMutability": "view",
      "type": "function"
    },
    {
      "inputs": [
        {
          "internalType": "address",
          "name": "owner",
          "type": "address"
        },
        {
          "internalType": "address",
          "name": "operator",
          "type": "address"
        }
      ],
      "name": "isApprovedForAll",
      "outputs": [
        {
          "internalType": "bool",
          "name": "",
          "type": "bool"
        }
      ],
      "stateMutability": "view",
      "type": "function"
    },
    {
      "inputs": [],
      "name": "name",
      "outputs": [
        {
          "internalType": "string",
          "name": "",
          "type": "string"
        }
      ],
      "stateMutability": "view",
      "type": "function"
    },
    {
      "inputs": [],
      "name": "owner",
      "outputs": [
        {
          "internalType": "address",
          "name": "",
          "type": "address"
        }
      ],
      "stateMutability": "view",
      "type": "function"
    },
    {
      "inputs": [
        {
          "internalType": "uint256",
          "name": "tokenId",
          "type": "uint256"
        }
      ],
      "name": "ownerOf",
      "outputs": [
        {
          "internalType": "address",
          "name": "",
          "type": "address"
        }
      ],
      "stateMutability": "view",
      "type": "function"
    },
    {
      "inputs": [],
      "name": "renounceOwnership",
      "outputs": [],
      "stateMutability": "nonpayable",
      "type": "function"
    },
    {
      "inputs": [
        {
          "internalType": "address",
          "name": "from",
          "type": "address"
        },
        {
          "internalType": "address",
          "name": "to",
          "type": "address"
        },
        {
          "internalType": "uint256",
          "name": "tokenId",
          "type": "uint256"
        }
      ],
      "name": "safeTransferFrom",
      "outputs": [],
      "stateMutability": "nonpayable",
      "type": "function"
    },
    {
      "inputs": [
        {
          "internalType": "address",
          "name": "from",
          "type": "address"
        },
        {
          "internalType": "address",
          "name": "to",
          "type": "address"
        },
        {
          "internalType": "uint256",
          "name": "tokenId",
          "type": "uint256"
        },
        {
          "internalType": "bytes",
          "name": "_data",
          "type": "bytes"
        }
      ],
      "name": "safeTransferFrom",
      "outputs": [],
      "stateMutability": "nonpayable",
      "type": "function"
    },
    {
      "inputs": [
        {
          "internalType": "address",
          "name": "operator",
          "type": "address"
        },
        {
          "internalType": "bool",
          "name": "approved",
          "type": "bool"
        }
      ],
      "name": "setApprovalForAll",
      "outputs": [],
      "stateMutability": "nonpayable",
      "type": "function"
    },
    {
      "inputs": [
        {
          "internalType": "bytes4",
          "name": "interfaceId",
          "type": "bytes4"
        }
      ],
      "name": "supportsInterface",
      "outputs": [
        {
          "internalType": "bool",
          "name": "",
          "type": "bool"
        }
      ],
      "stateMutability": "view",
      "type": "function"
    },
    {
      "inputs": [],
      "name": "symbol",
      "outputs": [
        {
          "internalType": "string",
          "name": "",
          "type": "string"
        }
      ],
      "stateMutability": "view",
      "type": "function"
    },
    {
      "inputs": [
        {
          "internalType": "address",
          "name": "from",
          "type": "address"
        },
        {
          "internalType": "address",
          "name": "to",
          "type": "address"
        },
        {
          "internalType": "uint256",
          "name": "tokenId",
          "type": "uint256"
        }
      ],
      "name": "transferFrom",
      "outputs": [],
      "stateMutability": "nonpayable",
      "type": "function"
    },
    {
      "inputs": [
        {
          "internalType": "address",
          "name": "newOwner",
          "type": "address"
        }
      ],
      "name": "transferOwnership",
      "outputs": [],
      "stateMutability": "nonpayable",
      "type": "function"
    },
    {
      "inputs": [
        {
          "internalType": "string",
          "name": "_uri",
          "type": "string"
        }
      ],
      "name": "setBaseURI",
      "outputs": [],
      "stateMutability": "nonpayable",
      "type": "function"
    },
    {
      "inputs": [],
      "name": "totalSupply",
      "outputs": [
        {
          "internalType": "uint256",
          "name": "",
          "type": "uint256"
        }
      ],
      "stateMutability": "view",
      "type": "function"
    },
    {
      "inputs": [
        {
          "internalType": "uint256",
          "name": "newMaxPresaleMint",
          "type": "uint256"
        }
      ],
      "name": "setMaxPresaleTokens",
      "outputs": [],
      "stateMutability": "nonpayable",
      "type": "function"
    },
    {
      "inputs": [],
      "name": "togglePreSale",
      "outputs": [],
      "stateMutability": "nonpayable",
      "type": "function"
    },
    {
      "inputs": [],
      "name": "toggleSale",
      "outputs": [],
      "stateMutability": "nonpayable",
      "type": "function"
    },
    {
      "inputs": [
        {
          "internalType": "uint256",
          "name": "tokenId",
          "type": "uint256"
        }
      ],
      "name": "tokenURI",
      "outputs": [
        {
          "internalType": "string",
          "name": "",
          "type": "string"
        }
      ],
      "stateMutability": "view",
      "type": "function"
    },
    {
      "inputs": [
        {
          "internalType": "uint256",
          "name": "amount",
          "type": "uint256"
        }
      ],
      "name": "mintItems",
      "outputs": [],
      "stateMutability": "payable",
      "type": "function"
    },
    {
      "inputs": [
        {
          "internalType": "uint256",
          "name": "amount",
          "type": "uint256"
        }
      ],
      "name": "presaleMintItems",
      "outputs": [],
      "stateMutability": "payable",
      "type": "function"
    },
    {
      "inputs": [
        {
          "internalType": "uint256",
          "name": "quantity",
          "type": "uint256"
        }
      ],
      "name": "reserve",
      "outputs": [],
      "stateMutability": "nonpayable",
      "type": "function"
    },
    {
      "inputs": [
        {
          "internalType": "address",
          "name": "payee",
          "type": "address"
        }
      ],
      "name": "withdraw",
      "outputs": [],
      "stateMutability": "payable",
      "type": "function"
    }
  ],
  "bytecode": "0x60806040526107d06008556000600960006101000a81548160ff0219169083151502179055506000600960016101000a81548160ff0219169083151502179055503480156200004d57600080fd5b506040518060400160405280600a81526020017f506f6c61722050616c73000000000000000000000000000000000000000000008152506040518060400160405280600481526020017f50414c53000000000000000000000000000000000000000000000000000000008152508160009080519060200190620000d2929190620001e2565b508060019080519060200190620000eb929190620001e2565b5050506200010e620001026200011460201b60201c565b6200011c60201b60201c565b620002f7565b600033905090565b6000600660009054906101000a900473ffffffffffffffffffffffffffffffffffffffff16905081600660006101000a81548173ffffffffffffffffffffffffffffffffffffffff021916908373ffffffffffffffffffffffffffffffffffffffff1602179055508173ffffffffffffffffffffffffffffffffffffffff168173ffffffffffffffffffffffffffffffffffffffff167f8be0079c531659141344cd1fd0a4f28419497f9722a3daafe3b4186f6b6457e060405160405180910390a35050565b828054620001f09062000292565b90600052602060002090601f01602090048101928262000214576000855562000260565b82601f106200022f57805160ff191683800117855562000260565b8280016001018555821562000260579182015b828111156200025f57825182559160200191906001019062000242565b5b5090506200026f919062000273565b5090565b5b808211156200028e57600081600090555060010162000274565b5090565b60006002820490506001821680620002ab57607f821691505b60208210811415620002c257620002c1620002c8565b5b50919050565b7f4e487b7100000000000000000000000000000000000000000000000000000000600052602260045260246000fd5b6134d580620003076000396000f3fe60806040526004361061019c5760003560e01c806370a08231116100ec57806395d89b411161008a578063c87b56dd11610064578063c87b56dd14610561578063ca3cb5221461059e578063e985e9c5146105b5578063f2fde38b146105f25761019c565b806395d89b41146104e4578063a22cb4651461050f578063b88d4fde146105385761019c565b80637d8966e4116100c65780637d8966e41461044e578063819b25ba146104655780638da5cb5b1461048e57806391860f78146104b95761019c565b806370a08231146103d1578063715018a61461040e57806372537189146104255761019c565b8063235b6ea11161015957806351cff8d91161013357806351cff8d9146103335780635367de6a1461034f57806355f804b31461036b5780636352211e146103945761019c565b8063235b6ea1146102b657806323b872dd146102e157806342842e0e1461030a5761019c565b806301ffc9a7146101a157806306fdde03146101de578063081812fc14610209578063095ea7b3146102465780630b4b98781461026f57806318160ddd1461028b575b600080fd5b3480156101ad57600080fd5b506101c860048036038101906101c3919061262f565b61061b565b6040516101d59190612df3565b60405180910390f35b3480156101ea57600080fd5b506101f36106fd565b6040516102009190612e0e565b60405180910390f35b34801561021557600080fd5b50610230600480360381019061022b91906126c2565b61078f565b60405161023d9190612d8c565b60405180910390f35b34801561025257600080fd5b5061026d600480360381019061026891906125f3565b610814565b005b610289600480360381019061028491906126c2565b61092c565b005b34801561029757600080fd5b506102a06109c7565b6040516102ad9190613010565b60405180910390f35b3480156102c257600080fd5b506102cb6109d8565b6040516102d89190613010565b60405180910390f35b3480156102ed57600080fd5b50610308600480360381019061030391906124ed565b6109e3565b005b34801561031657600080fd5b50610331600480360381019061032c91906124ed565b610a43565b005b61034d60048036038101906103489190612488565b610a63565b005b610369600480360381019061036491906126c2565b610b20565b005b34801561037757600080fd5b50610392600480360381019061038d9190612681565b610bbb565b005b3480156103a057600080fd5b506103bb60048036038101906103b691906126c2565b610c51565b6040516103c89190612d8c565b60405180910390f35b3480156103dd57600080fd5b506103f860048036038101906103f39190612488565b610d03565b6040516104059190613010565b60405180910390f35b34801561041a57600080fd5b50610423610dbb565b005b34801561043157600080fd5b5061044c600480360381019061044791906126c2565b610e43565b005b34801561045a57600080fd5b50610463610ec9565b005b34801561047157600080fd5b5061048c600480360381019061048791906126c2565b610f8c565b005b34801561049a57600080fd5b506104a3611061565b6040516104b09190612d8c565b60405180910390f35b3480156104c557600080fd5b506104ce61108b565b6040516104db9190612e0e565b60405180910390f35b3480156104f057600080fd5b506104f9611119565b6040516105069190612e0e565b60405180910390f35b34801561051b57600080fd5b50610536600480360381019061053191906125b7565b6111ab565b005b34801561054457600080fd5b5061055f600480360381019061055a919061253c565b61132c565b005b34801561056d57600080fd5b50610588600480360381019061058391906126c2565b61138e565b6040516105959190612e0e565b60405180910390f35b3480156105aa57600080fd5b506105b36113ff565b005b3480156105c157600080fd5b506105dc60048036038101906105d791906124b1565b6114a7565b6040516105e99190612df3565b60405180910390f35b3480156105fe57600080fd5b5061061960048036038101906106149190612488565b61153b565b005b60007f80ac58cd000000000000000000000000000000000000000000000000000000007bffffffffffffffffffffffffffffffffffffffffffffffffffffffff1916827bffffffffffffffffffffffffffffffffffffffffffffffffffffffff191614806106e657507f5b5e139f000000000000000000000000000000000000000000000000000000007bffffffffffffffffffffffffffffffffffffffffffffffffffffffff1916827bffffffffffffffffffffffffffffffffffffffffffffffffffffffff1916145b806106f657506106f582611633565b5b9050919050565b60606000805461070c906132ca565b80601f0160208091040260200160405190810160405280929190818152602001828054610738906132ca565b80156107855780601f1061075a57610100808354040283529160200191610785565b820191906000526020600020905b81548152906001019060200180831161076857829003601f168201915b5050505050905090565b600061079a8261169d565b6107d9576040517f08c379a00000000000000000000000000000000000000000000000000000000081526004016107d090612f70565b60405180910390fd5b6004600083815260200190815260200160002060009054906101000a900473ffffffffffffffffffffffffffffffffffffffff169050919050565b600061081f82610c51565b90508073ffffffffffffffffffffffffffffffffffffffff168373ffffffffffffffffffffffffffffffffffffffff161415610890576040517f08c379a000000000000000000000000000000000000000000000000000000000815260040161088790612fd0565b60405180910390fd5b8073ffffffffffffffffffffffffffffffffffffffff166108af611709565b73ffffffffffffffffffffffffffffffffffffffff1614806108de57506108dd816108d8611709565b6114a7565b5b61091d576040517f08c379a000000000000000000000000000000000000000000000000000000000815260040161091490612ef0565b60405180910390fd5b6109278383611711565b505050565b601481111561093a57600080fd5b600960009054906101000a900460ff1661095357600080fd5b600061095f60076117ca565b9050600854828261097091906130ff565b111561097b57600080fd5b66f52322698080008261098e9190613186565b34101561099a57600080fd5b60005b828110156109c2576109ae336117d8565b5080806109ba906132fc565b91505061099d565b505050565b60006109d360076117ca565b905090565b66f523226980800081565b6109f46109ee611709565b82611805565b610a33576040517f08c379a0000000000000000000000000000000000000000000000000000000008152600401610a2a90612ff0565b60405180910390fd5b610a3e8383836118e3565b505050565b610a5e8383836040518060200160405280600081525061132c565b505050565b610a6b611709565b73ffffffffffffffffffffffffffffffffffffffff16610a89611061565b73ffffffffffffffffffffffffffffffffffffffff1614610adf576040517f08c379a0000000000000000000000000000000000000000000000000000000008152600401610ad690612f90565b60405180910390fd5b8073ffffffffffffffffffffffffffffffffffffffff166108fc479081150290604051600060405180830381858888f19350505050610b1d57600080fd5b50565b6014811115610b2e57600080fd5b600960019054906101000a900460ff16610b4757600080fd5b6000610b5360076117ca565b90506127108282610b6491906130ff565b1115610b6f57600080fd5b66f523226980800082610b829190613186565b341015610b8e57600080fd5b60005b82811015610bb657610ba2336117d8565b508080610bae906132fc565b915050610b91565b505050565b610bc3611709565b73ffffffffffffffffffffffffffffffffffffffff16610be1611061565b73ffffffffffffffffffffffffffffffffffffffff1614610c37576040517f08c379a0000000000000000000000000000000000000000000000000000000008152600401610c2e90612f90565b60405180910390fd5b80600a9080519060200190610c4d9291906122ac565b5050565b6000806002600084815260200190815260200160002060009054906101000a900473ffffffffffffffffffffffffffffffffffffffff169050600073ffffffffffffffffffffffffffffffffffffffff168173ffffffffffffffffffffffffffffffffffffffff161415610cfa576040517f08c379a0000000000000000000000000000000000000000000000000000000008152600401610cf190612f30565b60405180910390fd5b80915050919050565b60008073ffffffffffffffffffffffffffffffffffffffff168273ffffffffffffffffffffffffffffffffffffffff161415610d74576040517f08c379a0000000000000000000000000000000000000000000000000000000008152600401610d6b90612f10565b60405180910390fd5b600360008373ffffffffffffffffffffffffffffffffffffffff1673ffffffffffffffffffffffffffffffffffffffff168152602001908152602001600020549050919050565b610dc3611709565b73ffffffffffffffffffffffffffffffffffffffff16610de1611061565b73ffffffffffffffffffffffffffffffffffffffff1614610e37576040517f08c379a0000000000000000000000000000000000000000000000000000000008152600401610e2e90612f90565b60405180910390fd5b610e416000611b3f565b565b610e4b611709565b73ffffffffffffffffffffffffffffffffffffffff16610e69611061565b73ffffffffffffffffffffffffffffffffffffffff1614610ebf576040517f08c379a0000000000000000000000000000000000000000000000000000000008152600401610eb690612f90565b60405180910390fd5b8060088190555050565b610ed1611709565b73ffffffffffffffffffffffffffffffffffffffff16610eef611061565b73ffffffffffffffffffffffffffffffffffffffff1614610f45576040517f08c379a0000000000000000000000000000000000000000000000000000000008152600401610f3c90612f90565b60405180910390fd5b600960019054906101000a900460ff1615600960016101000a81548160ff0219169083151502179055506000600960006101000a81548160ff021916908315150217905550565b610f94611709565b73ffffffffffffffffffffffffffffffffffffffff16610fb2611061565b73ffffffffffffffffffffffffffffffffffffffff1614611008576040517f08c379a0000000000000000000000000000000000000000000000000000000008152600401610fff90612f90565b60405180910390fd5b600061101460076117ca565b90505b8181101561105d5761271081101561104a576110336007611c05565b6110493360018361104491906130ff565b611c1b565b5b8080611055906132fc565b915050611017565b5050565b6000600660009054906101000a900473ffffffffffffffffffffffffffffffffffffffff16905090565b600a8054611098906132ca565b80601f01602080910402602001604051908101604052809291908181526020018280546110c4906132ca565b80156111115780601f106110e657610100808354040283529160200191611111565b820191906000526020600020905b8154815290600101906020018083116110f457829003601f168201915b505050505081565b606060018054611128906132ca565b80601f0160208091040260200160405190810160405280929190818152602001828054611154906132ca565b80156111a15780601f10611176576101008083540402835291602001916111a1565b820191906000526020600020905b81548152906001019060200180831161118457829003601f168201915b5050505050905090565b6111b3611709565b73ffffffffffffffffffffffffffffffffffffffff168273ffffffffffffffffffffffffffffffffffffffff161415611221576040517f08c379a000000000000000000000000000000000000000000000000000000000815260040161121890612eb0565b60405180910390fd5b806005600061122e611709565b73ffffffffffffffffffffffffffffffffffffffff1673ffffffffffffffffffffffffffffffffffffffff16815260200190815260200160002060008473ffffffffffffffffffffffffffffffffffffffff1673ffffffffffffffffffffffffffffffffffffffff16815260200190815260200160002060006101000a81548160ff0219169083151502179055508173ffffffffffffffffffffffffffffffffffffffff166112db611709565b73ffffffffffffffffffffffffffffffffffffffff167f17307eab39ab6107e8899845ad3d59bd9653f200f220920489ca2b5937696c31836040516113209190612df3565b60405180910390a35050565b61133d611337611709565b83611805565b61137c576040517f08c379a000000000000000000000000000000000000000000000000000000000815260040161137390612ff0565b60405180910390fd5b61138884848484611c39565b50505050565b60606113998261169d565b6113a257600080fd5b60006113ac611c95565b905060008151116113cc57604051806020016040528060008152506113f7565b806113d684611d27565b6040516020016113e7929190612d5d565b6040516020818303038152906040525b915050919050565b611407611709565b73ffffffffffffffffffffffffffffffffffffffff16611425611061565b73ffffffffffffffffffffffffffffffffffffffff161461147b576040517f08c379a000000000000000000000000000000000000000000000000000000000815260040161147290612f90565b60405180910390fd5b600960009054906101000a900460ff1615600960006101000a81548160ff021916908315150217905550565b6000600560008473ffffffffffffffffffffffffffffffffffffffff1673ffffffffffffffffffffffffffffffffffffffff16815260200190815260200160002060008373ffffffffffffffffffffffffffffffffffffffff1673ffffffffffffffffffffffffffffffffffffffff16815260200190815260200160002060009054906101000a900460ff16905092915050565b611543611709565b73ffffffffffffffffffffffffffffffffffffffff16611561611061565b73ffffffffffffffffffffffffffffffffffffffff16146115b7576040517f08c379a00000000000000000000000000000000000000000000000000000000081526004016115ae90612f90565b60405180910390fd5b600073ffffffffffffffffffffffffffffffffffffffff168173ffffffffffffffffffffffffffffffffffffffff161415611627576040517f08c379a000000000000000000000000000000000000000000000000000000000815260040161161e90612e50565b60405180910390fd5b61163081611b3f565b50565b60007f01ffc9a7000000000000000000000000000000000000000000000000000000007bffffffffffffffffffffffffffffffffffffffffffffffffffffffff1916827bffffffffffffffffffffffffffffffffffffffffffffffffffffffff1916149050919050565b60008073ffffffffffffffffffffffffffffffffffffffff166002600084815260200190815260200160002060009054906101000a900473ffffffffffffffffffffffffffffffffffffffff1673ffffffffffffffffffffffffffffffffffffffff1614159050919050565b600033905090565b816004600083815260200190815260200160002060006101000a81548173ffffffffffffffffffffffffffffffffffffffff021916908373ffffffffffffffffffffffffffffffffffffffff160217905550808273ffffffffffffffffffffffffffffffffffffffff1661178483610c51565b73ffffffffffffffffffffffffffffffffffffffff167f8c5be1e5ebec7d5bd14f71427d1e84f3dd0314c0f7b2291e5b200ac8c7c3b92560405160405180910390a45050565b600081600001549050919050565b60006117e46007611c05565b60006117f060076117ca565b90506117fc8382611ed4565b80915050919050565b60006118108261169d565b61184f576040517f08c379a000000000000000000000000000000000000000000000000000000000815260040161184690612ed0565b60405180910390fd5b600061185a83610c51565b90508073ffffffffffffffffffffffffffffffffffffffff168473ffffffffffffffffffffffffffffffffffffffff1614806118c957508373ffffffffffffffffffffffffffffffffffffffff166118b18461078f565b73ffffffffffffffffffffffffffffffffffffffff16145b806118da57506118d981856114a7565b5b91505092915050565b8273ffffffffffffffffffffffffffffffffffffffff1661190382610c51565b73ffffffffffffffffffffffffffffffffffffffff1614611959576040517f08c379a000000000000000000000000000000000000000000000000000000000815260040161195090612fb0565b60405180910390fd5b600073ffffffffffffffffffffffffffffffffffffffff168273ffffffffffffffffffffffffffffffffffffffff1614156119c9576040517f08c379a00000000000000000000000000000000000000000000000000000000081526004016119c090612e90565b60405180910390fd5b6119d48383836120a2565b6119df600082611711565b6001600360008573ffffffffffffffffffffffffffffffffffffffff1673ffffffffffffffffffffffffffffffffffffffff1681526020019081526020016000206000828254611a2f91906131e0565b925050819055506001600360008473ffffffffffffffffffffffffffffffffffffffff1673ffffffffffffffffffffffffffffffffffffffff1681526020019081526020016000206000828254611a8691906130ff565b92505081905550816002600083815260200190815260200160002060006101000a81548173ffffffffffffffffffffffffffffffffffffffff021916908373ffffffffffffffffffffffffffffffffffffffff160217905550808273ffffffffffffffffffffffffffffffffffffffff168473ffffffffffffffffffffffffffffffffffffffff167fddf252ad1be2c89b69c2b068fc378daa952ba7f163c4a11628f55a4df523b3ef60405160405180910390a4505050565b6000600660009054906101000a900473ffffffffffffffffffffffffffffffffffffffff16905081600660006101000a81548173ffffffffffffffffffffffffffffffffffffffff021916908373ffffffffffffffffffffffffffffffffffffffff1602179055508173ffffffffffffffffffffffffffffffffffffffff168173ffffffffffffffffffffffffffffffffffffffff167f8be0079c531659141344cd1fd0a4f28419497f9722a3daafe3b4186f6b6457e060405160405180910390a35050565b6001816000016000828254019250508190555050565b611c358282604051806020016040528060008152506120a7565b5050565b611c448484846118e3565b611c5084848484612102565b611c8f576040517f08c379a0000000000000000000000000000000000000000000000000000000008152600401611c8690612e30565b60405180910390fd5b50505050565b6060600a8054611ca4906132ca565b80601f0160208091040260200160405190810160405280929190818152602001828054611cd0906132ca565b8015611d1d5780601f10611cf257610100808354040283529160200191611d1d565b820191906000526020600020905b815481529060010190602001808311611d0057829003601f168201915b5050505050905090565b60606000821415611d6f576040518060400160405280600181526020017f30000000000000000000000000000000000000000000000000000000000000008152509050611ecf565b600082905060005b60008214611da1578080611d8a906132fc565b915050600a82611d9a9190613155565b9150611d77565b60008167ffffffffffffffff811115611de3577f4e487b7100000000000000000000000000000000000000000000000000000000600052604160045260246000fd5b6040519080825280601f01601f191660200182016040528015611e155781602001600182028036833780820191505090505b5090505b60008514611ec857600182611e2e91906131e0565b9150600a85611e3d9190613345565b6030611e4991906130ff565b60f81b818381518110611e85577f4e487b7100000000000000000000000000000000000000000000000000000000600052603260045260246000fd5b60200101907effffffffffffffffffffffffffffffffffffffffffffffffffffffffffffff1916908160001a905350600a85611ec19190613155565b9450611e19565b8093505050505b919050565b600073ffffffffffffffffffffffffffffffffffffffff168273ffffffffffffffffffffffffffffffffffffffff161415611f44576040517f08c379a0000000000000000000000000000000000000000000000000000000008152600401611f3b90612f50565b60405180910390fd5b611f4d8161169d565b15611f8d576040517f08c379a0000000000000000000000000000000000000000000000000000000008152600401611f8490612e70565b60405180910390fd5b611f99600083836120a2565b6001600360008473ffffffffffffffffffffffffffffffffffffffff1673ffffffffffffffffffffffffffffffffffffffff1681526020019081526020016000206000828254611fe991906130ff565b92505081905550816002600083815260200190815260200160002060006101000a81548173ffffffffffffffffffffffffffffffffffffffff021916908373ffffffffffffffffffffffffffffffffffffffff160217905550808273ffffffffffffffffffffffffffffffffffffffff16600073ffffffffffffffffffffffffffffffffffffffff167fddf252ad1be2c89b69c2b068fc378daa952ba7f163c4a11628f55a4df523b3ef60405160405180910390a45050565b505050565b6120b18383611ed4565b6120be6000848484612102565b6120fd576040517f08c379a00000000000000000000000000000000000000000000000000000000081526004016120f490612e30565b60405180910390fd5b505050565b60006121238473ffffffffffffffffffffffffffffffffffffffff16612299565b1561228c578373ffffffffffffffffffffffffffffffffffffffff1663150b7a0261214c611709565b8786866040518563ffffffff1660e01b815260040161216e9493929190612da7565b602060405180830381600087803b15801561218857600080fd5b505af19250505080156121b957506040513d601f19601f820116820180604052508101906121b69190612658565b60015b61223c573d80600081146121e9576040519150601f19603f3d011682016040523d82523d6000602084013e6121ee565b606091505b50600081511415612234576040517f08c379a000000000000000000000000000000000000000000000000000000000815260040161222b90612e30565b60405180910390fd5b805181602001fd5b63150b7a0260e01b7bffffffffffffffffffffffffffffffffffffffffffffffffffffffff1916817bffffffffffffffffffffffffffffffffffffffffffffffffffffffff191614915050612291565b600190505b949350505050565b600080823b905060008111915050919050565b8280546122b8906132ca565b90600052602060002090601f0160209004810192826122da5760008555612321565b82601f106122f357805160ff1916838001178555612321565b82800160010185558215612321579182015b82811115612320578251825591602001919060010190612305565b5b50905061232e9190612332565b5090565b5b8082111561234b576000816000905550600101612333565b5090565b600061236261235d8461305c565b61302b565b90508281526020810184848401111561237a57600080fd5b612385848285613288565b509392505050565b60006123a061239b8461308c565b61302b565b9050828152602081018484840111156123b857600080fd5b6123c3848285613288565b509392505050565b6000813590506123da81613443565b92915050565b6000813590506123ef8161345a565b92915050565b60008135905061240481613471565b92915050565b60008151905061241981613471565b92915050565b600082601f83011261243057600080fd5b813561244084826020860161234f565b91505092915050565b600082601f83011261245a57600080fd5b813561246a84826020860161238d565b91505092915050565b60008135905061248281613488565b92915050565b60006020828403121561249a57600080fd5b60006124a8848285016123cb565b91505092915050565b600080604083850312156124c457600080fd5b60006124d2858286016123cb565b92505060206124e3858286016123cb565b9150509250929050565b60008060006060848603121561250257600080fd5b6000612510868287016123cb565b9350506020612521868287016123cb565b925050604061253286828701612473565b9150509250925092565b6000806000806080858703121561255257600080fd5b6000612560878288016123cb565b9450506020612571878288016123cb565b935050604061258287828801612473565b925050606085013567ffffffffffffffff81111561259f57600080fd5b6125ab8782880161241f565b91505092959194509250565b600080604083850312156125ca57600080fd5b60006125d8858286016123cb565b92505060206125e9858286016123e0565b9150509250929050565b6000806040838503121561260657600080fd5b6000612614858286016123cb565b925050602061262585828601612473565b9150509250929050565b60006020828403121561264157600080fd5b600061264f848285016123f5565b91505092915050565b60006020828403121561266a57600080fd5b60006126788482850161240a565b91505092915050565b60006020828403121561269357600080fd5b600082013567ffffffffffffffff8111156126ad57600080fd5b6126b984828501612449565b91505092915050565b6000602082840312156126d457600080fd5b60006126e284828501612473565b91505092915050565b6126f481613214565b82525050565b61270381613226565b82525050565b6000612714826130bc565b61271e81856130d2565b935061272e818560208601613297565b61273781613432565b840191505092915050565b600061274d826130c7565b61275781856130e3565b9350612767818560208601613297565b61277081613432565b840191505092915050565b6000612786826130c7565b61279081856130f4565b93506127a0818560208601613297565b80840191505092915050565b60006127b96032836130e3565b91507f4552433732313a207472616e7366657220746f206e6f6e20455243373231526560008301527f63656976657220696d706c656d656e74657200000000000000000000000000006020830152604082019050919050565b600061281f6026836130e3565b91507f4f776e61626c653a206e6577206f776e657220697320746865207a65726f206160008301527f64647265737300000000000000000000000000000000000000000000000000006020830152604082019050919050565b6000612885601c836130e3565b91507f4552433732313a20746f6b656e20616c7265616479206d696e746564000000006000830152602082019050919050565b60006128c56024836130e3565b91507f4552433732313a207472616e7366657220746f20746865207a65726f2061646460008301527f72657373000000000000000000000000000000000000000000000000000000006020830152604082019050919050565b600061292b6019836130e3565b91507f4552433732313a20617070726f766520746f2063616c6c6572000000000000006000830152602082019050919050565b600061296b602c836130e3565b91507f4552433732313a206f70657261746f7220717565727920666f72206e6f6e657860008301527f697374656e7420746f6b656e00000000000000000000000000000000000000006020830152604082019050919050565b60006129d16038836130e3565b91507f4552433732313a20617070726f76652063616c6c6572206973206e6f74206f7760008301527f6e6572206e6f7220617070726f76656420666f7220616c6c00000000000000006020830152604082019050919050565b6000612a37602a836130e3565b91507f4552433732313a2062616c616e636520717565727920666f7220746865207a6560008301527f726f2061646472657373000000000000000000000000000000000000000000006020830152604082019050919050565b6000612a9d6029836130e3565b91507f4552433732313a206f776e657220717565727920666f72206e6f6e657869737460008301527f656e7420746f6b656e00000000000000000000000000000000000000000000006020830152604082019050919050565b6000612b036020836130e3565b91507f4552433732313a206d696e7420746f20746865207a65726f20616464726573736000830152602082019050919050565b6000612b43602c836130e3565b91507f4552433732313a20617070726f76656420717565727920666f72206e6f6e657860008301527f697374656e7420746f6b656e00000000000000000000000000000000000000006020830152604082019050919050565b6000612ba96005836130f4565b91507f2e6a736f6e0000000000000000000000000000000000000000000000000000006000830152600582019050919050565b6000612be96020836130e3565b91507f4f776e61626c653a2063616c6c6572206973206e6f7420746865206f776e65726000830152602082019050919050565b6000612c296029836130e3565b91507f4552433732313a207472616e73666572206f6620746f6b656e2074686174206960008301527f73206e6f74206f776e00000000000000000000000000000000000000000000006020830152604082019050919050565b6000612c8f6021836130e3565b91507f4552433732313a20617070726f76616c20746f2063757272656e74206f776e6560008301527f72000000000000000000000000000000000000000000000000000000000000006020830152604082019050919050565b6000612cf56031836130e3565b91507f4552433732313a207472616e736665722063616c6c6572206973206e6f74206f60008301527f776e6572206e6f7220617070726f7665640000000000000000000000000000006020830152604082019050919050565b612d578161327e565b82525050565b6000612d69828561277b565b9150612d75828461277b565b9150612d8082612b9c565b91508190509392505050565b6000602082019050612da160008301846126eb565b92915050565b6000608082019050612dbc60008301876126eb565b612dc960208301866126eb565b612dd66040830185612d4e565b8181036060830152612de88184612709565b905095945050505050565b6000602082019050612e0860008301846126fa565b92915050565b60006020820190508181036000830152612e288184612742565b905092915050565b60006020820190508181036000830152612e49816127ac565b9050919050565b60006020820190508181036000830152612e6981612812565b9050919050565b60006020820190508181036000830152612e8981612878565b9050919050565b60006020820190508181036000830152612ea9816128b8565b9050919050565b60006020820190508181036000830152612ec98161291e565b9050919050565b60006020820190508181036000830152612ee98161295e565b9050919050565b60006020820190508181036000830152612f09816129c4565b9050919050565b60006020820190508181036000830152612f2981612a2a565b9050919050565b60006020820190508181036000830152612f4981612a90565b9050919050565b60006020820190508181036000830152612f6981612af6565b9050919050565b60006020820190508181036000830152612f8981612b36565b9050919050565b60006020820190508181036000830152612fa981612bdc565b9050919050565b60006020820190508181036000830152612fc981612c1c565b9050919050565b60006020820190508181036000830152612fe981612c82565b9050919050565b6000602082019050818103600083015261300981612ce8565b9050919050565b60006020820190506130256000830184612d4e565b92915050565b6000604051905081810181811067ffffffffffffffff8211171561305257613051613403565b5b8060405250919050565b600067ffffffffffffffff82111561307757613076613403565b5b601f19601f8301169050602081019050919050565b600067ffffffffffffffff8211156130a7576130a6613403565b5b601f19601f8301169050602081019050919050565b600081519050919050565b600081519050919050565b600082825260208201905092915050565b600082825260208201905092915050565b600081905092915050565b600061310a8261327e565b91506131158361327e565b9250827fffffffffffffffffffffffffffffffffffffffffffffffffffffffffffffffff0382111561314a57613149613376565b5b828201905092915050565b60006131608261327e565b915061316b8361327e565b92508261317b5761317a6133a5565b5b828204905092915050565b60006131918261327e565b915061319c8361327e565b9250817fffffffffffffffffffffffffffffffffffffffffffffffffffffffffffffffff04831182151516156131d5576131d4613376565b5b828202905092915050565b60006131eb8261327e565b91506131f68361327e565b92508282101561320957613208613376565b5b828203905092915050565b600061321f8261325e565b9050919050565b60008115159050919050565b60007fffffffff0000000000000000000000000000000000000000000000000000000082169050919050565b600073ffffffffffffffffffffffffffffffffffffffff82169050919050565b6000819050919050565b82818337600083830152505050565b60005b838110156132b557808201518184015260208101905061329a565b838111156132c4576000848401525b50505050565b600060028204905060018216806132e257607f821691505b602082108114156132f6576132f56133d4565b5b50919050565b60006133078261327e565b91507fffffffffffffffffffffffffffffffffffffffffffffffffffffffffffffffff82141561333a57613339613376565b5b600182019050919050565b60006133508261327e565b915061335b8361327e565b92508261336b5761336a6133a5565b5b828206905092915050565b7f4e487b7100000000000000000000000000000000000000000000000000000000600052601160045260246000fd5b7f4e487b7100000000000000000000000000000000000000000000000000000000600052601260045260246000fd5b7f4e487b7100000000000000000000000000000000000000000000000000000000600052602260045260246000fd5b7f4e487b7100000000000000000000000000000000000000000000000000000000600052604160045260246000fd5b6000601f19601f8301169050919050565b61344c81613214565b811461345757600080fd5b50565b61346381613226565b811461346e57600080fd5b50565b61347a81613232565b811461348557600080fd5b50565b6134918161327e565b811461349c57600080fd5b5056fea2646970667358221220eccb5c820ef91c1c84014ac70b6422398c082958242904bc7a7479027f0a6d0d64736f6c63430008000033",
  "immutableReferences": {},
  "source": "pragma solidity ^0.8.0;\n//SPDX-License-Identifier: MIT\n\nimport \"@openzeppelin/contracts/token/ERC721/ERC721.sol\";\nimport \"@openzeppelin/contracts/utils/Counters.sol\";\nimport \"@openzeppelin/contracts/access/Ownable.sol\";\nimport \"@openzeppelin/contracts/utils/Strings.sol\";\n\ncontract PolarPals is ERC721, Ownable {\n    using Counters for Counters.Counter;\n    Counters.Counter private _tokenIds;\n\n    uint256 private constant _maxTokens = 10000;\n    uint256 private _maxPresaleTokens = 2000;\n    uint256 private constant _maxMint = 20;\n    uint256 public constant _price = 69000000000000000; // 0.069 ETH\n    bool private _presaleActive = false;\n    bool private _saleActive = false;\n\n    string public _prefixURI;\n\n    constructor() ERC721(\"Polar Pals\", \"PALS\") {}\n\n    function _baseURI() internal view override returns (string memory) {\n        return _prefixURI;\n    }\n\n    function setBaseURI(string memory _uri) public onlyOwner {\n        _prefixURI = _uri;\n    }\n\n    function totalSupply() public view returns (uint256) {\n        return _tokenIds.current();\n    }\n\n    function setMaxPresaleTokens(uint256 newMaxPresaleMint) public onlyOwner {\n        _maxPresaleTokens = newMaxPresaleMint;\n    }\n\n    function togglePreSale() public onlyOwner {\n        _presaleActive = !_presaleActive;\n    }\n\n    function toggleSale() public onlyOwner {\n        _saleActive = !_saleActive;\n        _presaleActive = false;\n    }\n\n    function tokenURI(uint256 tokenId)\n        public\n        view\n        virtual\n        override\n        returns (string memory)\n    {\n        require(_exists(tokenId));\n\n        string memory baseURI = _baseURI();\n        return\n            bytes(baseURI).length > 0\n                ? string(\n                    abi.encodePacked(\n                        baseURI,\n                        Strings.toString(tokenId),\n                        \".json\"\n                    )\n                )\n                : \"\";\n    }\n\n    function mintItems(uint256 amount) public payable {\n        require(amount <= _maxMint);\n        require(_saleActive);\n\n        uint256 totalMinted = _tokenIds.current();\n        require(totalMinted + amount <= _maxTokens);\n\n        require(msg.value >= amount * _price);\n\n        for (uint256 i = 0; i < amount; i++) {\n            _mintItem(msg.sender);\n        }\n    }\n\n    function presaleMintItems(uint256 amount) public payable {\n        require(amount <= _maxMint);\n        require(_presaleActive);\n\n        uint256 totalMinted = _tokenIds.current();\n        require(totalMinted + amount <= _maxPresaleTokens);\n\n        require(msg.value >= amount * _price);\n\n        for (uint256 i = 0; i < amount; i++) {\n            _mintItem(msg.sender);\n        }\n    }\n\n    function _mintItem(address to) internal returns (uint256) {\n        _tokenIds.increment();\n\n        uint256 id = _tokenIds.current();\n        _mint(to, id);\n\n        return id;\n    }\n\n    function reserve(uint256 quantity) public onlyOwner {\n        for(uint i = _tokenIds.current(); i < quantity; i++) {\n            if (i < _maxTokens) {\n                _tokenIds.increment();\n                _safeMint(msg.sender, i + 1);\n            }\n        }\n    }\n\n    function withdraw(address payee) public payable onlyOwner {\n        require(payable(payee).send(address(this).balance));\n    }\n}\n",
  "sourcePath": "/Users/teancum/the_polar_pals/contracts/PolarPals.sol",
  "compiler": {
    "name": "solc",
    "version": "0.8.0+commit.c7dfd78e.Emscripten.clang"
  },
  "schemaVersion": "3.4.1",
  "updatedAt": "2021-09-02T16:02:36.307Z",
  "devdoc": {
    "kind": "dev",
    "methods": {
      "approve(address,uint256)": {
        "details": "See {IERC721-approve}."
      },
      "balanceOf(address)": {
        "details": "See {IERC721-balanceOf}."
      },
      "getApproved(uint256)": {
        "details": "See {IERC721-getApproved}."
      },
      "isApprovedForAll(address,address)": {
        "details": "See {IERC721-isApprovedForAll}."
      },
      "name()": {
        "details": "See {IERC721Metadata-name}."
      },
      "owner()": {
        "details": "Returns the address of the current owner."
      },
      "ownerOf(uint256)": {
        "details": "See {IERC721-ownerOf}."
      },
      "renounceOwnership()": {
        "details": "Leaves the contract without owner. It will not be possible to call `onlyOwner` functions anymore. Can only be called by the current owner. NOTE: Renouncing ownership will leave the contract without an owner, thereby removing any functionality that is only available to the owner."
      },
      "safeTransferFrom(address,address,uint256)": {
        "details": "See {IERC721-safeTransferFrom}."
      },
      "safeTransferFrom(address,address,uint256,bytes)": {
        "details": "See {IERC721-safeTransferFrom}."
      },
      "setApprovalForAll(address,bool)": {
        "details": "See {IERC721-setApprovalForAll}."
      },
      "supportsInterface(bytes4)": {
        "details": "See {IERC165-supportsInterface}."
      },
      "symbol()": {
        "details": "See {IERC721Metadata-symbol}."
      },
      "tokenURI(uint256)": {
        "details": "See {IERC721Metadata-tokenURI}."
      },
      "transferFrom(address,address,uint256)": {
        "details": "See {IERC721-transferFrom}."
      },
      "transferOwnership(address)": {
        "details": "Transfers ownership of the contract to a new account (`newOwner`). Can only be called by the current owner."
      }
    },
    "version": 1
  },
  "userdoc": {
    "kind": "user",
    "methods": {},
    "version": 1
  }
}